{
  "contractName": "Lottery",
  "abi": [
    {
      "constant": true,
      "inputs": [],
      "name": "ticketPrice",
      "outputs": [
        {
          "name": "",
          "type": "uint256"
        }
      ],
      "payable": false,
      "stateMutability": "view",
      "type": "function",
      "signature": "0x1209b1f6"
    },
    {
      "constant": true,
      "inputs": [],
      "name": "softCapReached",
      "outputs": [
        {
          "name": "",
          "type": "bool"
        }
      ],
      "payable": false,
      "stateMutability": "view",
      "type": "function",
      "signature": "0x2b9edee9"
    },
    {
      "constant": true,
      "inputs": [],
      "name": "playerCount",
      "outputs": [
        {
          "name": "",
          "type": "uint256"
        }
      ],
      "payable": false,
      "stateMutability": "view",
      "type": "function",
      "signature": "0x302bcc57"
    },
    {
      "constant": true,
      "inputs": [],
      "name": "isInitialized",
      "outputs": [
        {
          "name": "",
          "type": "bool"
        }
      ],
      "payable": false,
      "stateMutability": "view",
      "type": "function",
      "signature": "0x392e53cd"
    },
    {
      "constant": true,
      "inputs": [],
      "name": "startTime",
      "outputs": [
        {
          "name": "",
          "type": "uint256"
        }
      ],
      "payable": false,
      "stateMutability": "view",
      "type": "function",
      "signature": "0x78e97925"
    },
    {
      "constant": true,
      "inputs": [],
      "name": "lottoId",
      "outputs": [
        {
          "name": "",
          "type": "uint256"
        }
      ],
      "payable": false,
      "stateMutability": "view",
      "type": "function",
      "signature": "0x8699e51e"
    },
    {
      "constant": true,
      "inputs": [],
      "name": "testValue",
      "outputs": [
        {
          "name": "",
          "type": "uint256"
        }
      ],
      "payable": false,
      "stateMutability": "view",
      "type": "function",
      "signature": "0x8af5de72"
    },
    {
      "constant": true,
      "inputs": [],
      "name": "softCap",
      "outputs": [
        {
          "name": "",
          "type": "uint256"
        }
      ],
      "payable": false,
      "stateMutability": "view",
      "type": "function",
      "signature": "0x906a26e0"
    },
    {
      "constant": true,
      "inputs": [],
      "name": "ticketsPurchased",
      "outputs": [
        {
          "name": "",
          "type": "uint256"
        }
      ],
      "payable": false,
      "stateMutability": "view",
      "type": "function",
      "signature": "0x90a7ba5b"
    },
    {
      "constant": true,
      "inputs": [],
      "name": "hardCap",
      "outputs": [
        {
          "name": "",
          "type": "uint256"
        }
      ],
      "payable": false,
      "stateMutability": "view",
      "type": "function",
      "signature": "0xfb86a404"
    },
    {
      "inputs": [],
      "payable": true,
      "stateMutability": "payable",
      "type": "constructor",
      "signature": "constructor"
    },
    {
      "payable": true,
      "stateMutability": "payable",
      "type": "fallback"
    },
    {
      "anonymous": false,
      "inputs": [
        {
          "indexed": false,
          "name": "softCap",
          "type": "uint256"
        },
        {
          "indexed": false,
          "name": "hardCap",
          "type": "uint256"
        },
        {
          "indexed": false,
          "name": "ticketPrice",
          "type": "uint256"
        },
        {
          "indexed": false,
          "name": "start",
          "type": "uint256"
        },
        {
          "indexed": false,
          "name": "id",
          "type": "uint256"
        }
      ],
      "name": "lottoInitialized",
      "type": "event",
      "signature": "0x7835784bf717bb333bfdc4e8ff60b9837afa3b8d61bb6df5a8539dcddedfa21e"
    },
    {
      "anonymous": false,
      "inputs": [
        {
          "indexed": false,
          "name": "buyer",
          "type": "address"
        },
        {
          "indexed": false,
          "name": "amount",
          "type": "uint256"
        }
      ],
      "name": "ticketPurchased",
      "type": "event",
      "signature": "0x80f8cde1dbefb5cb9fab659a41081b98fa88b0e4879ec7f6c870d8c8129e27e0"
    },
    {
      "anonymous": false,
      "inputs": [
        {
          "indexed": false,
          "name": "number",
          "type": "uint256"
        }
      ],
      "name": "logNumberReceived",
      "type": "event",
      "signature": "0x4300e48b36cdb4a1d5578d2ba489ffe9e709e371f53a7d2923a9f7cecf11c5fc"
    },
    {
      "anonymous": false,
      "inputs": [
        {
          "indexed": false,
          "name": "description",
          "type": "string"
        }
      ],
      "name": "logQuery",
      "type": "event",
      "signature": "0x18d7185daabaec12aeca0c54a5d3a37eda3c6bb0b360ef3688245118e7a45dfd"
    },
    {
      "anonymous": false,
      "inputs": [
        {
          "indexed": false,
          "name": "winner",
          "type": "address"
        }
      ],
      "name": "winner",
      "type": "event",
      "signature": "0x2ad95786da06c547c63d0a70ed6f06fcc5af1374aaa87963d5ba8ed02a2aa7d7"
    },
    {
      "anonymous": false,
      "inputs": [
        {
          "indexed": false,
          "name": "sender",
          "type": "address"
        },
        {
          "indexed": false,
          "name": "amount",
          "type": "uint256"
        }
      ],
      "name": "deposit",
      "type": "event",
      "signature": "0x47e7ef24b3022e382e65b1298581281f0ae273ac4f76464efcf5b06769264f2f"
    },
    {
      "anonymous": false,
      "inputs": [
        {
          "indexed": false,
          "name": "receiver",
          "type": "address"
        },
        {
          "indexed": false,
          "name": "amount",
          "type": "uint256"
        }
      ],
      "name": "withdraw",
      "type": "event",
      "signature": "0xf3fef3a3f44f9c277339b67d54f015748bd8d6b77a985b0ab6e71126b018c34a"
    },
    {
      "anonymous": false,
      "inputs": [],
      "name": "balancesReset",
      "type": "event",
      "signature": "0x341c8988c0bdd0ccc0211506a2fba28bac2dccb16d29407330940289d5b203b6"
    },
    {
      "constant": true,
      "inputs": [
        {
          "name": "_owner",
          "type": "address"
        }
      ],
      "name": "getTicketAmount",
      "outputs": [
        {
          "name": "",
          "type": "uint256"
        }
      ],
      "payable": false,
      "stateMutability": "view",
      "type": "function",
      "signature": "0x78bd2917"
    },
    {
      "constant": true,
      "inputs": [],
      "name": "getValues",
      "outputs": [
        {
          "name": "",
          "type": "uint256"
        },
        {
          "name": "",
          "type": "uint256"
        },
        {
          "name": "",
          "type": "uint256"
        }
      ],
      "payable": false,
      "stateMutability": "view",
      "type": "function",
      "signature": "0x19eb4a90"
    },
    {
      "constant": true,
      "inputs": [],
      "name": "getOwnerBalance",
      "outputs": [
        {
          "name": "",
          "type": "uint256"
        }
      ],
      "payable": false,
      "stateMutability": "view",
      "type": "function",
      "signature": "0x590791f2"
    },
    {
      "constant": false,
      "inputs": [
        {
          "name": "soft",
          "type": "uint256"
        },
        {
          "name": "hard",
          "type": "uint256"
        },
        {
          "name": "ticket",
          "type": "uint256"
        },
        {
          "name": "time",
          "type": "uint256"
        }
      ],
      "name": "initialize",
      "outputs": [],
      "payable": false,
      "stateMutability": "nonpayable",
      "type": "function",
      "signature": "0x60a2da44"
    },
    {
      "constant": false,
      "inputs": [
        {
          "name": "buyer",
          "type": "address"
        }
      ],
      "name": "freeTicket",
      "outputs": [],
      "payable": false,
      "stateMutability": "nonpayable",
      "type": "function",
      "signature": "0x3d0bd180"
    },
    {
      "constant": false,
      "inputs": [],
      "name": "buyTicket",
      "outputs": [],
      "payable": true,
      "stateMutability": "payable",
      "type": "function",
      "signature": "0xedca914c"
    },
    {
      "constant": false,
      "inputs": [
        {
          "name": "_myid",
          "type": "bytes32"
        },
        {
          "name": "_result",
          "type": "string"
        }
      ],
      "name": "__callback",
      "outputs": [],
      "payable": false,
      "stateMutability": "nonpayable",
      "type": "function",
      "signature": "0x27dc297e"
    },
    {
      "constant": false,
      "inputs": [
        {
          "name": "qId",
          "type": "bytes32"
        },
        {
          "name": "result",
          "type": "string"
        },
        {
          "name": "proof",
          "type": "bytes"
        }
      ],
      "name": "__callback",
      "outputs": [],
      "payable": false,
      "stateMutability": "nonpayable",
      "type": "function",
      "signature": "0x38bbfa50"
    },
    {
      "constant": false,
      "inputs": [],
      "name": "drawWinner",
      "outputs": [],
      "payable": false,
      "stateMutability": "nonpayable",
      "type": "function",
      "signature": "0xb2185bb1"
    },
    {
      "constant": true,
      "inputs": [],
      "name": "getQuery",
      "outputs": [
        {
          "name": "",
          "type": "string"
        }
      ],
      "payable": false,
      "stateMutability": "view",
      "type": "function",
      "signature": "0x9c742f93"
    },
    {
      "constant": false,
      "inputs": [],
      "name": "withdrawOwnerBalance",
      "outputs": [],
      "payable": false,
      "stateMutability": "nonpayable",
      "type": "function",
      "signature": "0x941b80ac"
    }
  ],
  "bytecode": "0x6011805461ffff1916905561020060405261015f60808181529062002dbc60a03980516200003691601591602090910190620009b5565b50608060405190810160405280604381526020017f2c20227265706c6163656d656e74223a2066616c7365247b5b6964656e74697481526020017f795d20227d227d2c20226964223a2031247b5b6964656e746974795d20227d2281526020017f7d275d000000000000000000000000000000000000000000000000000000000081525060179080519060200190620000d1929190620009b5565b5060068054600160a060020a031916331790819055600160a060020a0316600090815260146020526040902034905560016008556200011d633b9aca0064010000000062000157810204565b620001517f110000000000000000000000000000000000000000000000000000000000000064010000000062000394810204565b62000a57565b600154600160a060020a031615806200018d57506001546200018b90600160a060020a0316640100000000620005d6810204565b155b15620001aa57620001a86000640100000000620005da810204565b505b600160009054906101000a9004600160a060020a0316600160a060020a03166338cc48316040518163ffffffff167c0100000000000000000000000000000000000000000000000000000000028152600401602060405180830381600087803b1580156200021757600080fd5b505af11580156200022c573d6000803e3d6000fd5b505050506040513d60208110156200024357600080fd5b5051600054600160a060020a039081169116146200031657600160009054906101000a9004600160a060020a0316600160a060020a03166338cc48316040518163ffffffff167c0100000000000000000000000000000000000000000000000000000000028152600401602060405180830381600087803b158015620002c857600080fd5b505af1158015620002dd573d6000803e3d6000fd5b505050506040513d6020811015620002f457600080fd5b505160008054600160a060020a031916600160a060020a039092169190911790555b60008054604080517fca6ad1e4000000000000000000000000000000000000000000000000000000008152600481018590529051600160a060020a039092169263ca6ad1e49260248084019382900301818387803b1580156200037857600080fd5b505af11580156200038d573d6000803e3d6000fd5b5050505050565b600154600160a060020a03161580620003ca5750600154620003c890600160a060020a0316640100000000620005d6810204565b155b15620003e757620003e56000640100000000620005da810204565b505b600160009054906101000a9004600160a060020a0316600160a060020a03166338cc48316040518163ffffffff167c0100000000000000000000000000000000000000000000000000000000028152600401602060405180830381600087803b1580156200045457600080fd5b505af115801562000469573d6000803e3d6000fd5b505050506040513d60208110156200048057600080fd5b5051600054600160a060020a039081169116146200055357600160009054906101000a9004600160a060020a0316600160a060020a03166338cc48316040518163ffffffff167c0100000000000000000000000000000000000000000000000000000000028152600401602060405180830381600087803b1580156200050557600080fd5b505af11580156200051a573d6000803e3d6000fd5b505050506040513d60208110156200053157600080fd5b505160008054600160a060020a031916600160a060020a039092169190911790555b60008054604080517f688dcfd70000000000000000000000000000000000000000000000000000000081527fff00000000000000000000000000000000000000000000000000000000000000851660048201529051600160a060020a039092169263688dcfd79260248084019382900301818387803b1580156200037857600080fd5b3b90565b6000620005ef640100000000620005f5810204565b92915050565b60008062000620731d3b2638a7cc9f2cb3d298a3da7a90b67e5506ed640100000000620005d6810204565b11156200069e5760018054600160a060020a031916731d3b2638a7cc9f2cb3d298a3da7a90b67e5506ed17905560408051808201909152600b81527f6574685f6d61696e6e6574000000000000000000000000000000000000000000602082015262000695906401000000006200099c810204565b50600162000999565b6000620006c873c03a2615d5efaf5f49f60b7bb6583eaec212fdf1640100000000620005d6810204565b11156200073d5760018054600160a060020a03191673c03a2615d5efaf5f49f60b7bb6583eaec212fdf117905560408051808201909152600c81527f6574685f726f707374656e330000000000000000000000000000000000000000602082015262000695906401000000006200099c810204565b60006200076773b7a07bcf2ba2f2703b24c0691b5278999c59ac7e640100000000620005d6810204565b1115620007dc5760018054600160a060020a03191673b7a07bcf2ba2f2703b24c0691b5278999c59ac7e17905560408051808201909152600981527f6574685f6b6f76616e0000000000000000000000000000000000000000000000602082015262000695906401000000006200099c810204565b60006200080673146500cfd35b22e4a392fe0adc06de1a1368ed48640100000000620005d6810204565b11156200087b5760018054600160a060020a03191673146500cfd35b22e4a392fe0adc06de1a1368ed4817905560408051808201909152600b81527f6574685f72696e6b656279000000000000000000000000000000000000000000602082015262000695906401000000006200099c810204565b6000620008a5736f485c8bf6fc43ea212e93bbf8ce046c7f1cb475640100000000620005d6810204565b1115620008d9575060018054600160a060020a031916736f485c8bf6fc43ea212e93bbf8ce046c7f1cb47517815562000999565b6000620009037320e12a1f859b3feae5fb2a0a32c18f5a65555bbf640100000000620005d6810204565b111562000937575060018054600160a060020a0319167320e12a1f859b3feae5fb2a0a32c18f5a65555bbf17815562000999565b6000620009617351efaf4c8b3c9afbd5ab9f4bbc82784ab6ef8faa640100000000620005d6810204565b111562000995575060018054600160a060020a0319167351efaf4c8b3c9afbd5ab9f4bbc82784ab6ef8faa17815562000999565b5060005b90565b8051620009b1906002906020840190620009b5565b5050565b828054600181600116156101000203166002900490600052602060002090601f016020900481019282601f10620009f857805160ff191683800117855562000a28565b8280016001018555821562000a28579182015b8281111562000a2857825182559160200191906001019062000a0b565b5062000a3692915062000a3a565b5090565b6200099991905b8082111562000a36576000815560010162000a41565b6123558062000a676000396000f3fe6080604052600436106101035763ffffffff60e060020a6000350416631209b1f681146101a857806319eb4a90146101cf57806327dc297e146102025780632b9edee9146102be578063302bcc57146102e757806338bbfa50146102fc578063392e53cd1461043d5780633d0bd18014610452578063590791f21461048557806360a2da441461049a57806378bd2917146104d657806378e97925146105095780638699e51e1461051e5780638af5de7214610533578063906a26e01461054857806390a7ba5b1461055d578063941b80ac146105725780639c742f9314610587578063b2185bb114610611578063edca914c14610626578063fb86a4041461062e575b600654600160a060020a0316331461011a57600080fd5b600654600160a060020a0316600090815260146020526040902054610145903463ffffffff61064316565b60068054600160a060020a03908116600090815260146020908152604091829020949094559154825191168152349281019290925280517f47e7ef24b3022e382e65b1298581281f0ae273ac4f76464efcf5b06769264f2f9281900390910190a1005b3480156101b457600080fd5b506101bd61065e565b60408051918252519081900360200190f35b3480156101db57600080fd5b506101e4610664565b60408051938452602084019290925282820152519081900360600190f35b34801561020e57600080fd5b506102bc6004803603604081101561022557600080fd5b8135919081019060408101602082013564010000000081111561024757600080fd5b82018360208201111561025957600080fd5b8035906020019184600183028401116401000000008311171561027b57600080fd5b91908080601f016020809104026020016040519081016040528093929190818152602001838380828437600092019190915250929550610672945050505050565b005b3480156102ca57600080fd5b506102d3610692565b604080519115158252519081900360200190f35b3480156102f357600080fd5b506101bd6106a0565b34801561030857600080fd5b506102bc6004803603606081101561031f57600080fd5b8135919081019060408101602082013564010000000081111561034157600080fd5b82018360208201111561035357600080fd5b8035906020019184600183028401116401000000008311171561037557600080fd5b91908080601f01602080910402602001604051908101604052809392919081815260200183838082843760009201919091525092959493602081019350359150506401000000008111156103c857600080fd5b8201836020820111156103da57600080fd5b803590602001918460018302840111640100000000831117156103fc57600080fd5b91908080601f0160208091040260200160405190810160405280939291908181526020018383808284376000920191909152509295506106a6945050505050565b34801561044957600080fd5b506102d361082c565b34801561045e57600080fd5b506102bc6004803603602081101561047557600080fd5b5035600160a060020a0316610835565b34801561049157600080fd5b506101bd610a4e565b3480156104a657600080fd5b506102bc600480360360808110156104bd57600080fd5b5080359060208101359060408101359060600135610ac1565b3480156104e257600080fd5b506101bd600480360360208110156104f957600080fd5b5035600160a060020a0316610c09565b34801561051557600080fd5b506101bd610c28565b34801561052a57600080fd5b506101bd610c2e565b34801561053f57600080fd5b506101bd610c34565b34801561055457600080fd5b506101bd610c3a565b34801561056957600080fd5b506101bd610c40565b34801561057e57600080fd5b506102bc610c46565b34801561059357600080fd5b5061059c610d92565b6040805160208082528351818301528351919283929083019185019080838360005b838110156105d65781810151838201526020016105be565b50505050905090810190601f1680156106035780820380516001836020036101000a031916815260200191505b509250505060405180910390f35b34801561061d57600080fd5b506102bc610e28565b6102bc611089565b34801561063a57600080fd5b506101bd611265565b60008282018381101561065557600080fd5b90505b92915050565b600b5481565b600954600a54600c54909192565b60408051600081526020810190915261068e90839083906106a6565b5050565b601154610100900460ff1681565b600e5481565b6106ae61126b565b600160a060020a0316331461070d576040805160e560020a62461bcd02815260206004820152600d60248201527f57726f6e67206164647265737300000000000000000000000000000000000000604482015290519081900360640190fd5b60008381526013602052604090205460ff161515610775576040805160e560020a62461bcd02815260206004820152600a60248201527f496e76616c696420494400000000000000000000000000000000000000000000604482015290519081900360640190fd5b8051610788906005906020840190612248565b5060006107948361145d565b6040805182815290519192507f4300e48b36cdb4a1d5578d2ba489ffe9e709e371f53a7d2923a9f7cecf11c5fc919081900360200190a16000848152601360205260409020805460ff191690557f2ad95786da06c547c63d0a70ed6f06fcc5af1374aaa87963d5ba8ed02a2aa7d761080b8261146a565b60408051600160a060020a039092168252519081900360200190a150505050565b60115460ff1681565b600654600160a060020a03163314610885576040805160e560020a62461bcd028152602060048201526009602482015260008051602061230a833981519152604482015290519081900360640190fd5b60115460ff1615156108e1576040805160e560020a62461bcd02815260206004820152601b60248201527f4c6f7474657279206973206e6f7420696e697469616c697a65642e0000000000604482015290519081900360640190fd5b600160a060020a0381166000908152601260205260409020541561094f576040805160e560020a62461bcd02815260206004820152601a60248201527f427579657220616c726561647920686173207469636b6574732e000000000000604482015290519081900360640190fd5b600e5461096390600163ffffffff61064316565b600e55600160a060020a03811660009081526012602052604090205461099090600163ffffffff61064316565b600160a060020a038216600090815260126020526040902055600d546109bd90600163ffffffff61064316565b600d5560078054600180820183556000929092527fa66cc928b5edb82af9bd49922954155ab7b0942694bea4ce44661d9a8736c688018054600160a060020a031916600160a060020a03841690811790915560408051918252602082019290925281517f80f8cde1dbefb5cb9fab659a41081b98fa88b0e4879ec7f6c870d8c8129e27e0929181900390910190a150565b600654600090600160a060020a03163314610aa1576040805160e560020a62461bcd028152602060048201526009602482015260008051602061230a833981519152604482015290519081900360640190fd5b50600654600160a060020a03166000908152601460205260409020545b90565b600654600160a060020a03163314610b11576040805160e560020a62461bcd028152602060048201526009602482015260008051602061230a833981519152604482015290519081900360640190fd5b60115460ff1615610b6c576040805160e560020a62461bcd02815260206004820152601f60248201527f4c6f747465727920697320616c726561647920696e697469616c697a65642100604482015290519081900360640190fd5b6011805460ff191660019081179091556009859055600a849055600b839055428201600c55600f54610ba39163ffffffff61064316565b600f819055600954600a54600b54600c54604080519485526020850193909352838301919091526060830152608082019290925290517f7835784bf717bb333bfdc4e8ff60b9837afa3b8d61bb6df5a8539dcddedfa21e9181900360a00190a150505050565b600160a060020a0381166000908152601260205260409020545b919050565b600c5481565b600f5481565b60085481565b60095481565b600d5481565b600654600160a060020a03163314610c96576040805160e560020a62461bcd028152602060048201526009602482015260008051602061230a833981519152604482015290519081900360640190fd5b600654600160a060020a03166000908152601460205260408120805490829055908111610d0d576040805160e560020a62461bcd02815260206004820152601460248201527f4f776e657220686173206e6f2062616c616e6365000000000000000000000000604482015290519081900360640190fd5b600654604051600160a060020a039091169082156108fc029083906000818181858888f19350505050158015610d47573d6000803e3d6000fd5b5060065460408051600160a060020a0390921682526020820183905280517ff3fef3a3f44f9c277339b67d54f015748bd8d6b77a985b0ab6e71126b018c34a9281900390910190a150565b60188054604080516020601f6002600019610100600188161502019095169490940493840181900481028201810190925282815260609390929091830182828015610e1e5780601f10610df357610100808354040283529160200191610e1e565b820191906000526020600020905b815481529060010190602001808311610e0157829003601f168201915b5050505050905090565b600654600160a060020a03163314610e78576040805160e560020a62461bcd028152602060048201526009602482015260008051602061230a833981519152604482015290519081900360640190fd5b60115460ff161515610ed4576040805160e560020a62461bcd02815260206004820152601a60248201527f4c6f7474657279206973206e6f7420696e697469616c697a6564000000000000604482015290519081900360640190fd5b6011805460ff191690819055610100900460ff161515610efb57610ef6611588565b611087565b610f0361163a565b610f0b6116c4565b610f136116e6565b604080518082018252600681527f6e6573746564000000000000000000000000000000000000000000000000000060208083019190915260188054845160026001831615610100026000190190921691909104601f8101849004840282018401909552848152600094610fdf9493919291830182828015610fd55780601f10610faa57610100808354040283529160200191610fd5565b820191906000526020600020905b815481529060010190602001808311610fb857829003601f168201915b5050505050611827565b600081815260136020908152604091829020805460ff1916600117905581518181526032918101919091527f4f7261636c697a65207175657279207761732073656e742e205374616e64696e818301527f6720627920666f7220726573706f6e73652e0000000000000000000000000000606082015290519192507f18d7185daabaec12aeca0c54a5d3a37eda3c6bb0b360ef3688245118e7a45dfd919081900360800190a1505b565b60115460ff1615156110e5576040805160e560020a62461bcd02815260206004820152601b60248201527f4c6f7474657279206973206e6f7420696e697469616c697a65642e0000000000604482015290519081900360640190fd5b6000341161113d576040805160e560020a62461bcd02815260206004820152600e60248201527f4e6f2065746865722073656e742e000000000000000000000000000000000000604482015290519081900360640190fd5b601054611150903463ffffffff61064316565b601055600b5460009061116a90349063ffffffff611c1d16565b3360009081526012602052604090205490915061118d908263ffffffff61064316565b33600090815260126020526040902055600d546111b0908263ffffffff61064316565b600d55600e546111c790600163ffffffff61064316565b600e55600780546001810182556000919091527fa66cc928b5edb82af9bd49922954155ab7b0942694bea4ce44661d9a8736c688018054600160a060020a0319163317905560095460105410611227576011805461ff0019166101001790555b604080513381526020810183905281517f80f8cde1dbefb5cb9fab659a41081b98fa88b0e4879ec7f6c870d8c8129e27e0929181900390910190a150565b600a5481565b600154600090600160a060020a03161580611298575060015461129690600160a060020a0316611c41565b155b156112a9576112a76000611c45565b505b600160009054906101000a9004600160a060020a0316600160a060020a03166338cc48316040518163ffffffff1660e060020a028152600401602060405180830381600087803b1580156112fc57600080fd5b505af1158015611310573d6000803e3d6000fd5b505050506040513d602081101561132657600080fd5b5051600054600160a060020a039081169116146113dc57600160009054906101000a9004600160a060020a0316600160a060020a03166338cc48316040518163ffffffff1660e060020a028152600401602060405180830381600087803b15801561139057600080fd5b505af11580156113a4573d6000803e3d6000fd5b505050506040513d60208110156113ba57600080fd5b505160008054600160a060020a031916600160a060020a039092169190911790555b6000809054906101000a9004600160a060020a0316600160a060020a031663c281d19e6040518163ffffffff1660e060020a02815260040160206040518083038186803b15801561142c57600080fd5b505afa158015611440573d6000803e3d6000fd5b505050506040513d602081101561145657600080fd5b5051905090565b6000610658826000611c4f565b6000606060078054905060405190808252806020026020018201604052801561149d578160200160208202803883390190505b50905060005b60075481101561150557601260006007838154811015156114c057fe5b6000918252602080832090910154600160a060020a0316835282019290925260400190205482518390839081106114f357fe5b602090810290910101526001016114a3565b50600080805b83518110156115775761153c848281518110151561152557fe5b60209081029091010151849063ffffffff61064316565b925085831061156f57600780548290811061155357fe5b600091825260209091200154600160a060020a03169150611577565b60010161150b565b50611580611d7d565b949350505050565b60005b600754811015611631576000600b54601260006007858154811015156115ad57fe5b6000918252602080832090910154600160a060020a031683528201929092526040019020546007805492909102925090839081106115e757fe5b6000918252602082200154604051600160a060020a039091169183156108fc02918491818181858888f19350505050158015611627573d6000803e3d6000fd5b505060010161158b565b50611087611d7d565b600654601054604051600160a060020a039092169181156108fc0291906000818181858888f19350505050158015611676573d6000803e3d6000fd5b5060065460105460408051600160a060020a039093168352602083019190915280517ff3fef3a3f44f9c277339b67d54f015748bd8d6b77a985b0ab6e71126b018c34a9281900390910190a1565b6116cf600d54611e24565b80516116e391601691602090910190612248565b50565b601560166017604051602001808480546001816001161561010002031660029004801561174a5780601f1061172857610100808354040283529182019161174a565b820191906000526020600020905b815481529060010190602001808311611736575b5050838054600181600116156101000203166002900480156117a35780601f106117815761010080835404028352918201916117a3565b820191906000526020600020905b81548152906001019060200180831161178f575b5050828054600181600116156101000203166002900480156117fc5780601f106117da5761010080835404028352918201916117fc565b820191906000526020600020905b8154815290600101906020018083116117e8575b50509350505050604051602081830303815290604052601890805190602001906116e3929190612248565b600154600090600160a060020a03161580611854575060015461185290600160a060020a0316611c41565b155b15611865576118636000611c45565b505b600160009054906101000a9004600160a060020a0316600160a060020a03166338cc48316040518163ffffffff1660e060020a028152600401602060405180830381600087803b1580156118b857600080fd5b505af11580156118cc573d6000803e3d6000fd5b505050506040513d60208110156118e257600080fd5b5051600054600160a060020a0390811691161461199857600160009054906101000a9004600160a060020a0316600160a060020a03166338cc48316040518163ffffffff1660e060020a028152600401602060405180830381600087803b15801561194c57600080fd5b505af1158015611960573d6000803e3d6000fd5b505050506040513d602081101561197657600080fd5b505160008054600160a060020a031916600160a060020a039092169190911790555b600080546040517f524f3889000000000000000000000000000000000000000000000000000000008152602060048201818152875160248401528751600160a060020a039094169363524f38899389938392604490920191908501908083838b5b83811015611a115781810151838201526020016119f9565b50505050905090810190601f168015611a3e5780820380516001836020036101000a031916815260200191505b5092505050602060405180830381600087803b158015611a5d57600080fd5b505af1158015611a71573d6000803e3d6000fd5b505050506040513d6020811015611a8757600080fd5b50519050670de0b6b3a764000062030d403a0201811115611aac575060009050610658565b600080546040517fadf59f9900000000000000000000000000000000000000000000000000000000815260048101838152606060248301908152885160648401528851600160a060020a039094169463adf59f9994879491938b938b9391929091604481019160849091019060208701908083838b5b83811015611b3a578181015183820152602001611b22565b50505050905090810190601f168015611b675780820380516001836020036101000a031916815260200191505b50838103825284518152845160209182019186019080838360005b83811015611b9a578181015183820152602001611b82565b50505050905090810190601f168015611bc75780820380516001836020036101000a031916815260200191505b50955050505050506020604051808303818588803b158015611be857600080fd5b505af1158015611bfc573d6000803e3d6000fd5b50505050506040513d6020811015611c1357600080fd5b5051949350505050565b6000808211611c2b57600080fd5b60008284811515611c3857fe5b04949350505050565b3b90565b6000610658611f17565b6000828180805b8351811015611d615760308482815181101515611c6f57fe5b90602001015160f860020a900460f860020a0260f860020a900460ff1610158015611cc5575060398482815181101515611ca557fe5b90602001015160f860020a900460f860020a0260f860020a900460ff1611155b15611d21578115611ce457851515611cdc57611d61565b600019909501945b600a8302925060308482815181101515611cfa57fe5b90602001015160f860020a900460f860020a0260f860020a900460ff160383019250611d59565b8381815181101515611d2f57fe5b90602001015160f860020a900460f860020a0260f860020a900460ff16602e1415611d5957600191505b600101611c56565b506000851115611d745784600a0a820291505b50949350505050565b6000600d8190556009819055600a819055600b819055600c819055600e8190555b600754811015611dea57600060126000600784815481101515611dbd57fe5b6000918252602080832090910154600160a060020a03168352820192909252604001902055600101611d9e565b506000611df86007826122c6565b506040517f341c8988c0bdd0ccc0211506a2fba28bac2dccb16d29407330940289d5b203b690600090a1565b6060811515611e67575060408051808201909152600181527f30000000000000000000000000000000000000000000000000000000000000006020820152610c23565b8160005b8115611e7f57600101600a82049150611e6b565b6060816040519080825280601f01601f191660200182016040528015611eac576020820181803883390190505b50905060001982015b8515611d7457815160001982019160f860020a6030600a8a060102918491908110611edc57fe5b9060200101907effffffffffffffffffffffffffffffffffffffffffffffffffffffffffffff1916908160001a905350600a86049550611eb5565b600080611f37731d3b2638a7cc9f2cb3d298a3da7a90b67e5506ed611c41565b1115611fa85760018054600160a060020a031916731d3b2638a7cc9f2cb3d298a3da7a90b67e5506ed17905560408051808201909152600b81527f6574685f6d61696e6e65740000000000000000000000000000000000000000006020820152611fa090612239565b506001610abe565b6000611fc773c03a2615d5efaf5f49f60b7bb6583eaec212fdf1611c41565b11156120305760018054600160a060020a03191673c03a2615d5efaf5f49f60b7bb6583eaec212fdf117905560408051808201909152600c81527f6574685f726f707374656e3300000000000000000000000000000000000000006020820152611fa090612239565b600061204f73b7a07bcf2ba2f2703b24c0691b5278999c59ac7e611c41565b11156120b85760018054600160a060020a03191673b7a07bcf2ba2f2703b24c0691b5278999c59ac7e17905560408051808201909152600981527f6574685f6b6f76616e00000000000000000000000000000000000000000000006020820152611fa090612239565b60006120d773146500cfd35b22e4a392fe0adc06de1a1368ed48611c41565b11156121405760018054600160a060020a03191673146500cfd35b22e4a392fe0adc06de1a1368ed4817905560408051808201909152600b81527f6574685f72696e6b6562790000000000000000000000000000000000000000006020820152611fa090612239565b600061215f736f485c8bf6fc43ea212e93bbf8ce046c7f1cb475611c41565b1115612191575060018054600160a060020a031916736f485c8bf6fc43ea212e93bbf8ce046c7f1cb475178155610abe565b60006121b07320e12a1f859b3feae5fb2a0a32c18f5a65555bbf611c41565b11156121e2575060018054600160a060020a0319167320e12a1f859b3feae5fb2a0a32c18f5a65555bbf178155610abe565b60006122017351efaf4c8b3c9afbd5ab9f4bbc82784ab6ef8faa611c41565b1115612233575060018054600160a060020a0319167351efaf4c8b3c9afbd5ab9f4bbc82784ab6ef8faa178155610abe565b50600090565b805161068e9060029060208401905b828054600181600116156101000203166002900490600052602060002090601f016020900481019282601f1061228957805160ff19168380011785556122b6565b828001600101855582156122b6579182015b828111156122b657825182559160200191906001019061229b565b506122c29291506122ef565b5090565b8154818355818111156122ea576000838152602090206122ea9181019083016122ef565b505050565b610abe91905b808211156122c257600081556001016122f556fe4e6f74206f776e65720000000000000000000000000000000000000000000000a165627a7a72305820dd11986ec3a871a0eaeec083ed2e11f7c048b2472c6f6c20724fca4b714d24e900295b55524c5d205b276a736f6e2868747470733a2f2f6170692e72616e646f6d2e6f72672f6a736f6e2d7270632f312f696e766f6b65292e726573756c742e72616e646f6d5b2264617461225d272c20275c6e7b226a736f6e727063223a2022322e30222c20226d6574686f64223a202267656e6572617465496e746567657273222c2022706172616d73223a207b20226170694b6579223a2022247b5b646563727970745d204250446933375578744c77373661656c693653427172395475746e794430724b4746776a45425638676b6d59344655754a316d554a595363592b582f5537642f6f4a497832756948493950626f634b65366634794d7274312b36647a347a52344f6e2f45694c2f5354764d6d424e3453394e476c3370654c3770334a7250753172543077576843794f5959746b754e79684f684c2b5a5461663834657d222c20226e223a20312c20226d696e223a20312c20226d6178223a20",
  "source": "pragma solidity ^0.5.0;\nimport \"./SafeMath.sol\";\nimport \"./oraclize_API.sol\";\n\ncontract Lottery is usingOraclize {\n    /**\n    *   @dev Variables, Mappings & Modifiers\n    */\n    \n    using SafeMath for uint;\n    \n    bytes newProof;\n\n    address payable owner;\n    address payable[] buyerPosition;\n    \n    uint public testValue;\n\n    uint constant gasLimitForOraclize = 175000;\n    uint public softCap;\n    uint public hardCap;\n    uint public ticketPrice;\n    uint public startTime;\n    uint public ticketsPurchased;\n    uint public playerCount;\n    uint public lottoId;\n    uint lottoBalance;\n    \n    bool public isInitialized = false;\n    bool public softCapReached = false;\n    \n    mapping (address => uint) ownerTicketCount;\n    mapping (bytes32 => bool) validId;\n    mapping (address => uint) ownerBalance;\n    \n    modifier onlyOwner() {\n        require(owner == msg.sender, \"Not owner\");\n        _;\n    }\n    \n    /**\n    *   @dev Events\n    */\n    \n    event lottoInitialized (\n        uint softCap,\n        uint hardCap,\n        uint ticketPrice,\n        uint start,\n        uint id\n    );\n\n    event ticketPurchased (\n        address buyer,\n        uint amount\n    );\n\n    event logNumberReceived (\n        uint number\n    );\n    \n    event logQuery (\n        string description\n    );\n    \n    event winner (\n        address winner\n    );\n\n    event deposit (\n        address sender,\n        uint amount\n    );\n\n    event withdraw (\n        address receiver,\n        uint amount\n    );\n\n    event balancesReset (\n\n    );\n\n    /**\n    *   @dev Constructor\n    */\n    \n    constructor() public payable {\n        owner = msg.sender;\n        ownerBalance[owner] = msg.value;\n        testValue = 1;\n        oraclize_setCustomGasPrice(1000000000 wei);\n        oraclize_setProof(proofType_TLSNotary | proofStorage_IPFS);\n    }\n\n    /**\n    *   @dev Helper/Getter functions\n    */\n\n    function getTicketAmount(address _owner) public view returns (uint) {\n        return (ownerTicketCount[_owner]);\n    }\n\n    function getValues() public view returns (uint, uint, uint) {\n        return (softCap, hardCap, startTime);\n    }\n\n    function getOwnerBalance() public view onlyOwner returns (uint) {\n        return ownerBalance[owner];\n    }\n    \n    /**\n    *   @dev Initialize the lottery with the appropriate values. Only available to contract owner.\n     */\n\n    function initialize(uint soft, uint hard, uint ticket, uint time) external onlyOwner {\n        require(!isInitialized, \"Lottery is already initialized!\");\n        isInitialized = true;\n        \n        softCap = soft;\n        hardCap = hard;\n        ticketPrice = ticket;\n        startTime = now + time;\n        lottoId = lottoId.add(1);\n\n        emit lottoInitialized(softCap, hardCap, ticketPrice, startTime, lottoId);\n        \n    }\n    \n    function _resetBalances() private {\n        ticketsPurchased = 0;\n        softCap = 0;\n        hardCap = 0;\n        ticketPrice = 0;\n        startTime = 0;\n        playerCount = 0;\n        \n        for (uint i = 0; i < buyerPosition.length; i++) {\n            ownerTicketCount[buyerPosition[i]] = 0; \n        }\n        \n        buyerPosition.length = 0;\n        \n        emit balancesReset();\n        \n    }\n\n    /**\n    *   @dev Give a free first ticket to anyone who has been verified. verification is done off-chain and the owner calls the function. (OnlyOwner)\n     */\n    \n    function freeTicket(address payable buyer) public onlyOwner {\n        require(isInitialized, \"Lottery is not initialized.\");\n        require(ownerTicketCount[buyer] == 0, \"Buyer already has tickets.\");\n\n        playerCount = playerCount.add(1);\n\n        ownerTicketCount[buyer] = ownerTicketCount[buyer].add(1);\n        ticketsPurchased = ticketsPurchased.add(1);\n\n        buyerPosition.push(buyer);\n\n        emit ticketPurchased(buyer, 1);\n    }\n\n    /**\n    *   @dev Buy an amount of tickets based on the amount of ether sent and the ticket price. Available to      all lottery participants.\n     */\n\n    function buyTicket() public payable {\n        require(isInitialized, \"Lottery is not initialized.\");\n        require(msg.value > 0, \"No ether sent.\");\n\n        lottoBalance = lottoBalance.add(msg.value);\n        uint value = msg.value.div(ticketPrice);\n        ownerTicketCount[msg.sender] = ownerTicketCount[msg.sender].add(value);\n        ticketsPurchased = ticketsPurchased.add(value);\n\n        playerCount = playerCount.add(1);\n\n        //instead of having ticket IDs, this design tracks the order in which addresses participate.\n        buyerPosition.push(msg.sender);\n\n        if (lottoBalance >= softCap) {\n            softCapReached = true;\n        }\n\n        emit ticketPurchased(msg.sender, value);\n    }\n    \n    /**\n     * @dev Oraclize callback function\n    */\n    \n    function __callback(bytes32 qId, string memory result, bytes memory proof) public {\n        require(msg.sender == oraclize_cbAddress(), \"Wrong address\");\n        require(validId[qId], \"Invalid ID\");\n        \n        newProof = proof;\n        \n        uint randomNumber = parseInt(result);\n        \n        emit logNumberReceived(randomNumber);\n        \n        validId[qId] = false;\n        \n        emit winner(getWinner(randomNumber));\n        \n    }\n    \n    /**\n     * @dev Oraclize query to random.org. Fetches one random number between 0 and the\n     * total amount of tickets purchased. Returns the value in the callback above and calls the winner. \n    */\n    \n    function drawWinner() public onlyOwner {\n        require(isInitialized, \"Lottery is not initialized\");\n        isInitialized = false;  \n        \n        if (!softCapReached) {\n            _refund();\n        } else {\n            _withdrawBalance();\n            _setQuery2();   \n            _setQuery123();\n            \n            bytes32 qId = oraclize_query(\"nested\", query123);\n            \n            validId[qId] = true;\n\n            emit logQuery(\"Oraclize query was sent. Standing by for response.\");\n        }\n\n    }\n    \n    /**\n     * @dev Get the lottery winner and return their address.\n    */\n    \n    function getWinner(uint randomNumber) private returns (address) {\n\n        uint[] memory ownerTicketAmount = new uint[](buyerPosition.length);\n        \n        for (uint i = 0; i<buyerPosition.length; i++) {\n            ownerTicketAmount[i] = ownerTicketCount[buyerPosition[i]];\n        }\n        \n        uint ticketSum = 0;\n        address winnerAddr;\n\n        for (uint p = 0; p<ownerTicketAmount.length; p++) {\n            ticketSum = ticketSum.add(ownerTicketAmount[p]);\n            if (ticketSum >= randomNumber) {\n                winnerAddr = buyerPosition[p];\n                break;\n            }\n        }\n\n        _resetBalances();\n        return winnerAddr;\n    }\n    \n    /**\n     * @dev Each part of the Oraclize query to be concatenated.\n    */\n    \n    string query1 = \"[URL] ['json(https://api.random.org/json-rpc/1/invoke).result.random[\\\"data\\\"]', '\\\\n{\\\"jsonrpc\\\": \\\"2.0\\\", \\\"method\\\": \\\"generateIntegers\\\", \\\"params\\\": { \\\"apiKey\\\": \\\"${[decrypt] BPDi37UxtLw76aeli6SBqr9TutnyD0rKGFwjEBV8gkmY4FUuJ1mUJYScY+X/U7d/oJIx2uiHI9PbocKe6f4yMrt1+6dz4zR4On/EiL/STvMmBN4S9NGl3peL7p3JrPu1rT0wWhCyOYYtkuNyhOhL+ZTaf84e}\\\", \\\"n\\\": 1, \\\"min\\\": 1, \\\"max\\\": \";\n    string query2;\n    string query3 = \", \\\"replacement\\\": false${[identity] \\\"}\\\"}, \\\"id\\\": 1${[identity] \\\"}\\\"}']\";\n    \n    string query123;\n    \n    /**\n     * @dev Setters and getters for queries.\n    */\n    \n    function _setQuery2() private {\n        query2 = uint2str(ticketsPurchased);\n    }\n    \n    function _setQuery123() private {\n        query123 = string(abi.encodePacked(query1, query2, query3));\n    }\n    \n    function getQuery() public view returns(string memory) {\n        return query123;\n    }\n\n    /**\n     * @dev Refund function. Refunds customers' ether\n    */\n\n    function _refund() private {\n        for (uint i; i < buyerPosition.length; i++) {\n\n            uint refundAmount = ownerTicketCount[buyerPosition[i]] * ticketPrice;\n\n            buyerPosition[i].transfer(refundAmount);\n\n            \n        }\n        _resetBalances();\n    }\n\n    /**\n     * @dev Withdraw lottery funds. Only owner can withdraw contract funds.\n    */\n    \n    function _withdrawBalance() internal {\n        owner.transfer(lottoBalance);\n        emit withdraw(owner, lottoBalance);\n    }\n\n    /**\n     * @dev Withdraw owner's funds. Only owner can withdraw contract funds.\n    */\n\n    function withdrawOwnerBalance() public onlyOwner {\n        uint balance = ownerBalance[owner];\n        ownerBalance[owner] = 0;\n        require(balance > 0, \"Owner has no balance\");\n        owner.transfer(balance);\n        emit withdraw(owner, balance);\n    }\n    \n    /**\n     * @dev Fallback function. Refunds ether to sender unless they are the owner.\n    */\n    \n    function() external payable {\n        require(msg.sender == owner);\n        ownerBalance[owner] = ownerBalance[owner].add(msg.value);\n        emit deposit(owner, msg.value);\n    }\n\n\n\n}",
  "sourcePath": "/Users/CryptoWork/Desktop/Russel_Lottery/contracts/Lottery.sol",
  "compiler": {
    "name": "solc",
    "version": "0.5.0+commit.1d4f565a.Emscripten.clang"
  },
  "schemaVersion": "3.0.0",
  "updatedAt": "2019-01-13T03:50:40.064Z",
  "devdoc": {
    "methods": {
      "__callback(bytes32,string,bytes)": {
        "details": "Oraclize callback function"
      },
      "buyTicket()": {
        "details": "Buy an amount of tickets based on the amount of ether sent and the ticket price. Available to      all lottery participants."
      },
      "constructor": {
        "details": "Constructor"
      },
      "drawWinner()": {
        "details": "Oraclize query to random.org. Fetches one random number between 0 and the total amount of tickets purchased. Returns the value in the callback above and calls the winner. "
      },
      "freeTicket(address)": {
        "details": "Give a free first ticket to anyone who has been verified. verification is done off-chain and the owner calls the function. (OnlyOwner)"
      },
      "getTicketAmount(address)": {
        "details": "Helper/Getter functions"
      },
      "initialize(uint256,uint256,uint256,uint256)": {
        "details": "Initialize the lottery with the appropriate values. Only available to contract owner."
      },
      "withdrawOwnerBalance()": {
        "details": "Withdraw owner's funds. Only owner can withdraw contract funds."
      }
    }
  },
  "userdoc": {
    "methods": {}
  }
}